{
  "address": "0xE17ef861b1E9f9B8cb8663536683248d0323e66D",
  "abi": [
    {
      "inputs": [
        {
          "internalType": "contract SushiToken",
          "name": "_sushi",
          "type": "address"
        },
        {
          "internalType": "address",
          "name": "_devaddr",
          "type": "address"
        },
        {
          "internalType": "uint256",
          "name": "_sushiPerBlock",
          "type": "uint256"
        },
        {
          "internalType": "uint256",
          "name": "_startBlock",
          "type": "uint256"
        },
        {
          "internalType": "uint256",
          "name": "_bonusEndBlock",
          "type": "uint256"
        }
      ],
      "stateMutability": "nonpayable",
      "type": "constructor"
    },
    {
      "anonymous": false,
      "inputs": [
        {
          "indexed": true,
          "internalType": "address",
          "name": "user",
          "type": "address"
        },
        {
          "indexed": true,
          "internalType": "uint256",
          "name": "pid",
          "type": "uint256"
        },
        {
          "indexed": false,
          "internalType": "uint256",
          "name": "amount",
          "type": "uint256"
        }
      ],
      "name": "Deposit",
      "type": "event"
    },
    {
      "anonymous": false,
      "inputs": [
        {
          "indexed": true,
          "internalType": "address",
          "name": "user",
          "type": "address"
        },
        {
          "indexed": true,
          "internalType": "uint256",
          "name": "pid",
          "type": "uint256"
        },
        {
          "indexed": false,
          "internalType": "uint256",
          "name": "amount",
          "type": "uint256"
        }
      ],
      "name": "EmergencyWithdraw",
      "type": "event"
    },
    {
      "anonymous": false,
      "inputs": [
        {
          "indexed": true,
          "internalType": "address",
          "name": "previousOwner",
          "type": "address"
        },
        {
          "indexed": true,
          "internalType": "address",
          "name": "newOwner",
          "type": "address"
        }
      ],
      "name": "OwnershipTransferred",
      "type": "event"
    },
    {
      "anonymous": false,
      "inputs": [
        {
          "indexed": true,
          "internalType": "address",
          "name": "user",
          "type": "address"
        },
        {
          "indexed": true,
          "internalType": "uint256",
          "name": "pid",
          "type": "uint256"
        },
        {
          "indexed": false,
          "internalType": "uint256",
          "name": "amount",
          "type": "uint256"
        }
      ],
      "name": "Withdraw",
      "type": "event"
    },
    {
      "inputs": [],
      "name": "BONUS_MULTIPLIER",
      "outputs": [
        {
          "internalType": "uint256",
          "name": "",
          "type": "uint256"
        }
      ],
      "stateMutability": "view",
      "type": "function"
    },
    {
      "inputs": [
        {
          "internalType": "uint256",
          "name": "_allocPoint",
          "type": "uint256"
        },
        {
          "internalType": "contract IERC20",
          "name": "_lpToken",
          "type": "address"
        },
        {
          "internalType": "bool",
          "name": "_withUpdate",
          "type": "bool"
        }
      ],
      "name": "add",
      "outputs": [],
      "stateMutability": "nonpayable",
      "type": "function"
    },
    {
      "inputs": [],
      "name": "bonusEndBlock",
      "outputs": [
        {
          "internalType": "uint256",
          "name": "",
          "type": "uint256"
        }
      ],
      "stateMutability": "view",
      "type": "function"
    },
    {
      "inputs": [
        {
          "internalType": "uint256",
          "name": "_pid",
          "type": "uint256"
        },
        {
          "internalType": "uint256",
          "name": "_amount",
          "type": "uint256"
        }
      ],
      "name": "deposit",
      "outputs": [],
      "stateMutability": "nonpayable",
      "type": "function"
    },
    {
      "inputs": [
        {
          "internalType": "address",
          "name": "_devaddr",
          "type": "address"
        }
      ],
      "name": "dev",
      "outputs": [],
      "stateMutability": "nonpayable",
      "type": "function"
    },
    {
      "inputs": [],
      "name": "devaddr",
      "outputs": [
        {
          "internalType": "address",
          "name": "",
          "type": "address"
        }
      ],
      "stateMutability": "view",
      "type": "function"
    },
    {
      "inputs": [
        {
          "internalType": "uint256",
          "name": "_pid",
          "type": "uint256"
        }
      ],
      "name": "emergencyWithdraw",
      "outputs": [],
      "stateMutability": "nonpayable",
      "type": "function"
    },
    {
      "inputs": [
        {
          "internalType": "uint256",
          "name": "_from",
          "type": "uint256"
        },
        {
          "internalType": "uint256",
          "name": "_to",
          "type": "uint256"
        }
      ],
      "name": "getMultiplier",
      "outputs": [
        {
          "internalType": "uint256",
          "name": "",
          "type": "uint256"
        }
      ],
      "stateMutability": "view",
      "type": "function"
    },
    {
      "inputs": [],
      "name": "massUpdatePools",
      "outputs": [],
      "stateMutability": "nonpayable",
      "type": "function"
    },
    {
      "inputs": [
        {
          "internalType": "uint256",
          "name": "_pid",
          "type": "uint256"
        }
      ],
      "name": "migrate",
      "outputs": [],
      "stateMutability": "nonpayable",
      "type": "function"
    },
    {
      "inputs": [],
      "name": "migrator",
      "outputs": [
        {
          "internalType": "contract IMigratorChef",
          "name": "",
          "type": "address"
        }
      ],
      "stateMutability": "view",
      "type": "function"
    },
    {
      "inputs": [],
      "name": "owner",
      "outputs": [
        {
          "internalType": "address",
          "name": "",
          "type": "address"
        }
      ],
      "stateMutability": "view",
      "type": "function"
    },
    {
      "inputs": [
        {
          "internalType": "uint256",
          "name": "_pid",
          "type": "uint256"
        },
        {
          "internalType": "address",
          "name": "_user",
          "type": "address"
        }
      ],
      "name": "pendingSushi",
      "outputs": [
        {
          "internalType": "uint256",
          "name": "",
          "type": "uint256"
        }
      ],
      "stateMutability": "view",
      "type": "function"
    },
    {
      "inputs": [
        {
          "internalType": "uint256",
          "name": "",
          "type": "uint256"
        }
      ],
      "name": "poolInfo",
      "outputs": [
        {
          "internalType": "contract IERC20",
          "name": "lpToken",
          "type": "address"
        },
        {
          "internalType": "uint256",
          "name": "allocPoint",
          "type": "uint256"
        },
        {
          "internalType": "uint256",
          "name": "lastRewardBlock",
          "type": "uint256"
        },
        {
          "internalType": "uint256",
          "name": "accSushiPerShare",
          "type": "uint256"
        }
      ],
      "stateMutability": "view",
      "type": "function"
    },
    {
      "inputs": [],
      "name": "poolLength",
      "outputs": [
        {
          "internalType": "uint256",
          "name": "",
          "type": "uint256"
        }
      ],
      "stateMutability": "view",
      "type": "function"
    },
    {
      "inputs": [],
      "name": "renounceOwnership",
      "outputs": [],
      "stateMutability": "nonpayable",
      "type": "function"
    },
    {
      "inputs": [
        {
          "internalType": "uint256",
          "name": "_pid",
          "type": "uint256"
        },
        {
          "internalType": "uint256",
          "name": "_allocPoint",
          "type": "uint256"
        },
        {
          "internalType": "bool",
          "name": "_withUpdate",
          "type": "bool"
        }
      ],
      "name": "set",
      "outputs": [],
      "stateMutability": "nonpayable",
      "type": "function"
    },
    {
      "inputs": [
        {
          "internalType": "contract IMigratorChef",
          "name": "_migrator",
          "type": "address"
        }
      ],
      "name": "setMigrator",
      "outputs": [],
      "stateMutability": "nonpayable",
      "type": "function"
    },
    {
      "inputs": [],
      "name": "startBlock",
      "outputs": [
        {
          "internalType": "uint256",
          "name": "",
          "type": "uint256"
        }
      ],
      "stateMutability": "view",
      "type": "function"
    },
    {
      "inputs": [],
      "name": "sushi",
      "outputs": [
        {
          "internalType": "contract SushiToken",
          "name": "",
          "type": "address"
        }
      ],
      "stateMutability": "view",
      "type": "function"
    },
    {
      "inputs": [],
      "name": "sushiPerBlock",
      "outputs": [
        {
          "internalType": "uint256",
          "name": "",
          "type": "uint256"
        }
      ],
      "stateMutability": "view",
      "type": "function"
    },
    {
      "inputs": [],
      "name": "totalAllocPoint",
      "outputs": [
        {
          "internalType": "uint256",
          "name": "",
          "type": "uint256"
        }
      ],
      "stateMutability": "view",
      "type": "function"
    },
    {
      "inputs": [
        {
          "internalType": "address",
          "name": "newOwner",
          "type": "address"
        }
      ],
      "name": "transferOwnership",
      "outputs": [],
      "stateMutability": "nonpayable",
      "type": "function"
    },
    {
      "inputs": [
        {
          "internalType": "uint256",
          "name": "_pid",
          "type": "uint256"
        }
      ],
      "name": "updatePool",
      "outputs": [],
      "stateMutability": "nonpayable",
      "type": "function"
    },
    {
      "inputs": [
        {
          "internalType": "uint256",
          "name": "",
          "type": "uint256"
        },
        {
          "internalType": "address",
          "name": "",
          "type": "address"
        }
      ],
      "name": "userInfo",
      "outputs": [
        {
          "internalType": "uint256",
          "name": "amount",
          "type": "uint256"
        },
        {
          "internalType": "uint256",
          "name": "rewardDebt",
          "type": "uint256"
        }
      ],
      "stateMutability": "view",
      "type": "function"
    },
    {
      "inputs": [
        {
          "internalType": "uint256",
          "name": "_pid",
          "type": "uint256"
        },
        {
          "internalType": "uint256",
          "name": "_amount",
          "type": "uint256"
        }
      ],
      "name": "withdraw",
      "outputs": [],
      "stateMutability": "nonpayable",
      "type": "function"
    }
  ],
  "transactionHash": "0x6c666acd044a518f516f2c75fcd18124b97ebc1672d7ec243bdc34fc7e3c5acb",
  "args": [
    "0x3c889442590D06914C81DA7ba9D414EaB6AA3490",
    "0xf39Fd6e51aad88F6F4ce6aB8827279cffFb92266",
    "1000000000000000000000",
    12111496,
    12112496
  ],
  "solcInputHash": "845a6ffbe6fb66dad745604576de7505",
  "bytecode": "0x608060405260006008553480156200001657600080fd5b5060405162001b9c38038062001b9c8339810160408190526200003991620000d3565b620000443362000083565b600180546001600160a01b039687166001600160a01b031991821617909155600280549590961694169390931790935560045560035560095562000143565b600080546001600160a01b038381166001600160a01b0319831681178455604051919092169283917f8be0079c531659141344cd1fd0a4f28419497f9722a3daafe3b4186f6b6457e09190a35050565b600080600080600060a08688031215620000eb578081fd5b8551620000f8816200012a565b60208701519095506200010b816200012a565b6040870151606088015160809098015196999198509695945092505050565b6001600160a01b03811681146200014057600080fd5b50565b611a4980620001536000396000f3fe608060405234801561001057600080fd5b506004361061018e5760003560e01c8063630b5ba1116100de5780638da5cb5b11610097578063b0bcf42a11610071578063b0bcf42a14610370578063d49e77cd14610379578063e2bbb1581461038c578063f2fde38b1461039f57600080fd5b80638da5cb5b146103055780638dbb1e3a1461031657806393f1a40b1461032957600080fd5b8063630b5ba1146102b457806364482f79146102bc578063715018a6146102cf5780637cd07e47146102d75780638aa28550146102ea5780638d88a90e146102f257600080fd5b80631eaaa0451161014b578063454b060811610125578063454b06081461027257806348cd4cb11461028557806351eb05a61461028e5780635312ea8e146102a157600080fd5b80631eaaa0451461023757806323cf31181461024c578063441a3e701461025f57600080fd5b8063081e3eda146101935780630a087903146101aa5780631526fe27146101d557806317caf6f114610212578063195426ec1461021b5780631aed65531461022e575b600080fd5b6006545b6040519081526020015b60405180910390f35b6001546101bd906001600160a01b031681565b6040516001600160a01b0390911681526020016101a1565b6101e86101e33660046117b3565b6103b2565b604080516001600160a01b03909516855260208501939093529183015260608201526080016101a1565b61019760085481565b6101976102293660046117e3565b6103f6565b61019760035481565b61024a610245366004611812565b610584565b005b61024a61025a36600461175f565b6106da565b61024a61026d366004611853565b610726565b61024a6102803660046117b3565b61087c565b61019760095481565b61024a61029c3660046117b3565b610af2565b61024a6102af3660046117b3565b610d20565b61024a610dd0565b61024a6102ca366004611874565b610dfb565b61024a610ec6565b6005546101bd906001600160a01b031681565b610197600a81565b61024a61030036600461175f565b610efc565b6000546001600160a01b03166101bd565b610197610324366004611853565b610f64565b61035b6103373660046117e3565b60076020908152600092835260408084209091529082529020805460019091015482565b604080519283526020830191909152016101a1565b61019760045481565b6002546101bd906001600160a01b031681565b61024a61039a366004611853565b610fca565b61024a6103ad36600461175f565b6110e3565b600681815481106103c257600080fd5b600091825260209091206004909102018054600182015460028301546003909301546001600160a01b039092169350919084565b6000806006848154811061041a57634e487b7160e01b600052603260045260246000fd5b600091825260208083208784526007825260408085206001600160a01b038981168752935280852060049485029092016003810154815492516370a0823160e01b8152309681019690965290965091949193919216906370a082319060240160206040518083038186803b15801561049157600080fd5b505afa1580156104a5573d6000803e3d6000fd5b505050506040513d601f19601f820116820180604052508101906104c991906117cb565b90508360020154431180156104dd57508015155b156105495760006104f2856002015443610f64565b9050600061052560085461051f88600101546105196004548761117e90919063ffffffff16565b9061117e565b90611191565b905061054461053d8461051f8464e8d4a5100061117e565b859061119d565b935050505b610577836001015461057164e8d4a5100061051f86886000015461117e90919063ffffffff16565b906111a9565b9450505050505b92915050565b6000546001600160a01b031633146105b75760405162461bcd60e51b81526004016105ae906118f0565b60405180910390fd5b80156105c5576105c5610dd0565b600060095443116105d8576009546105da565b435b6008549091506105ea908561119d565b600855604080516080810182526001600160a01b0394851681526020810195865290810191825260006060820181815260068054600181018255925291517ff652222313e28459528d920b65115c16c04f3efc82aaedc97be59f3f377c0d3f600490920291820180546001600160a01b031916919096161790945593517ff652222313e28459528d920b65115c16c04f3efc82aaedc97be59f3f377c0d40840155517ff652222313e28459528d920b65115c16c04f3efc82aaedc97be59f3f377c0d418301555090517ff652222313e28459528d920b65115c16c04f3efc82aaedc97be59f3f377c0d4290910155565b6000546001600160a01b031633146107045760405162461bcd60e51b81526004016105ae906118f0565b600580546001600160a01b0319166001600160a01b0392909216919091179055565b60006006838154811061074957634e487b7160e01b600052603260045260246000fd5b6000918252602080832086845260078252604080852033865290925292208054600490920290920192508311156107b75760405162461bcd60e51b81526020600482015260126024820152711dda5d1a191c985dce881b9bdd0819dbdbd960721b60448201526064016105ae565b6107c084610af2565b60006107ee826001015461057164e8d4a5100061051f8760030154876000015461117e90919063ffffffff16565b90506107fa33826111b5565b815461080690856111a9565b80835560038401546108239164e8d4a510009161051f919061117e565b6001830155825461083e906001600160a01b03163386611306565b604051848152859033907ff279e6a1f5e320cca91135676d9cb6e44ca8a08c0b88342bcdb1144f6511b5689060200160405180910390a35050505050565b6005546001600160a01b03166108cb5760405162461bcd60e51b815260206004820152601460248201527336b4b3b930ba329d1037379036b4b3b930ba37b960611b60448201526064016105ae565b6000600682815481106108ee57634e487b7160e01b600052603260045260246000fd5b60009182526020822060049182020180546040516370a0823160e01b815230938101939093529093506001600160a01b0316919082906370a082319060240160206040518083038186803b15801561094557600080fd5b505afa158015610959573d6000803e3d6000fd5b505050506040513d601f19601f8201168201806040525081019061097d91906117cb565b60055490915061099a906001600160a01b03848116911683611369565b60055460405163ce5494bb60e01b81526001600160a01b038481166004830152600092169063ce5494bb90602401602060405180830381600087803b1580156109e257600080fd5b505af11580156109f6573d6000803e3d6000fd5b505050506040513d601f19601f82011682018060405250810190610a1a9190611797565b6040516370a0823160e01b81523060048201529091506001600160a01b038216906370a082319060240160206040518083038186803b158015610a5c57600080fd5b505afa158015610a70573d6000803e3d6000fd5b505050506040513d601f19601f82011682018060405250810190610a9491906117cb565b8214610ad15760405162461bcd60e51b815260206004820152600c60248201526b1b5a59dc985d194e8818985960a21b60448201526064016105ae565b83546001600160a01b0319166001600160a01b039190911617909255505050565b600060068281548110610b1557634e487b7160e01b600052603260045260246000fd5b9060005260206000209060040201905080600201544311610b34575050565b80546040516370a0823160e01b81523060048201526000916001600160a01b0316906370a082319060240160206040518083038186803b158015610b7757600080fd5b505afa158015610b8b573d6000803e3d6000fd5b505050506040513d601f19601f82011682018060405250810190610baf91906117cb565b905080610bc157504360029091015550565b6000610bd1836002015443610f64565b90506000610bf860085461051f86600101546105196004548761117e90919063ffffffff16565b6001546002549192506001600160a01b03908116916340c10f199116610c1f84600a611191565b6040516001600160e01b031960e085901b1681526001600160a01b0390921660048301526024820152604401600060405180830381600087803b158015610c6557600080fd5b505af1158015610c79573d6000803e3d6000fd5b50506001546040516340c10f1960e01b8152306004820152602481018590526001600160a01b0390911692506340c10f199150604401600060405180830381600087803b158015610cc957600080fd5b505af1158015610cdd573d6000803e3d6000fd5b50505050610d0b610d008461051f64e8d4a510008561117e90919063ffffffff16565b60038601549061119d565b60038501555050436002909201919091555050565b600060068281548110610d4357634e487b7160e01b600052603260045260246000fd5b60009182526020808320858452600782526040808520338087529352909320805460049093029093018054909450610d88926001600160a01b03919091169190611306565b8054604051908152839033907fbb757047c2b5f3974fe26b7c10f732e7bce710b0952a71082702781e62ae05959060200160405180910390a360008082556001909101555050565b60065460005b81811015610df757610de781610af2565b610df0816119bf565b9050610dd6565b5050565b6000546001600160a01b03163314610e255760405162461bcd60e51b81526004016105ae906118f0565b8015610e3357610e33610dd0565b610e8482610e7e60068681548110610e5b57634e487b7160e01b600052603260045260246000fd5b9060005260206000209060040201600101546008546111a990919063ffffffff16565b9061119d565b6008819055508160068481548110610eac57634e487b7160e01b600052603260045260246000fd5b906000526020600020906004020160010181905550505050565b6000546001600160a01b03163314610ef05760405162461bcd60e51b81526004016105ae906118f0565b610efa600061148d565b565b6002546001600160a01b03163314610f425760405162461bcd60e51b81526020600482015260096024820152686465763a207775743f60b81b60448201526064016105ae565b600280546001600160a01b0319166001600160a01b0392909216919091179055565b60006003548211610f8557610f7e600a61051984866111a9565b905061057e565b6003548310610f9857610f7e82846111a9565b610f7e610fb0600354846111a990919063ffffffff16565b610e7e600a610519876003546111a990919063ffffffff16565b600060068381548110610fed57634e487b7160e01b600052603260045260246000fd5b6000918252602080832086845260078252604080852033865290925292206004909102909101915061101e84610af2565b805415611061576000611053826001015461057164e8d4a5100061051f8760030154876000015461117e90919063ffffffff16565b905061105f33826111b5565b505b8154611078906001600160a01b03163330866114dd565b8054611084908461119d565b80825560038301546110a19164e8d4a510009161051f919061117e565b6001820155604051838152849033907f90890809c654f11d6e72a28fa60149770a0d11ec6c92319d6ceb2bb0a4ea1a159060200160405180910390a350505050565b6000546001600160a01b0316331461110d5760405162461bcd60e51b81526004016105ae906118f0565b6001600160a01b0381166111725760405162461bcd60e51b815260206004820152602660248201527f4f776e61626c653a206e6577206f776e657220697320746865207a65726f206160448201526564647265737360d01b60648201526084016105ae565b61117b8161148d565b50565b600061118a828461195d565b9392505050565b600061118a828461193d565b600061118a8284611925565b600061118a828461197c565b6001546040516370a0823160e01b81523060048201526000916001600160a01b0316906370a082319060240160206040518083038186803b1580156111f957600080fd5b505afa15801561120d573d6000803e3d6000fd5b505050506040513d601f19601f8201168201806040525081019061123191906117cb565b9050808211156112c85760015460405163a9059cbb60e01b81526001600160a01b038581166004830152602482018490529091169063a9059cbb906044015b602060405180830381600087803b15801561128a57600080fd5b505af115801561129e573d6000803e3d6000fd5b505050506040513d601f19601f820116820180604052508101906112c2919061177b565b50505050565b60015460405163a9059cbb60e01b81526001600160a01b038581166004830152602482018590529091169063a9059cbb90604401611270565b505050565b6040516001600160a01b03831660248201526044810182905261130190849063a9059cbb60e01b906064015b60408051601f198184030181529190526020810180516001600160e01b03166001600160e01b031990931692909217909152611515565b8015806113f25750604051636eb1769f60e11b81523060048201526001600160a01b03838116602483015284169063dd62ed3e9060440160206040518083038186803b1580156113b857600080fd5b505afa1580156113cc573d6000803e3d6000fd5b505050506040513d601f19601f820116820180604052508101906113f091906117cb565b155b61145d5760405162461bcd60e51b815260206004820152603660248201527f5361666545524332303a20617070726f76652066726f6d206e6f6e2d7a65726f60448201527520746f206e6f6e2d7a65726f20616c6c6f77616e636560501b60648201526084016105ae565b6040516001600160a01b03831660248201526044810182905261130190849063095ea7b360e01b90606401611332565b600080546001600160a01b038381166001600160a01b0319831681178455604051919092169283917f8be0079c531659141344cd1fd0a4f28419497f9722a3daafe3b4186f6b6457e09190a35050565b6040516001600160a01b03808516602483015283166044820152606481018290526112c29085906323b872dd60e01b90608401611332565b600061156a826040518060400160405280602081526020017f5361666545524332303a206c6f772d6c6576656c2063616c6c206661696c6564815250856001600160a01b03166115e79092919063ffffffff16565b8051909150156113015780806020019051810190611588919061177b565b6113015760405162461bcd60e51b815260206004820152602a60248201527f5361666545524332303a204552433230206f7065726174696f6e20646964206e6044820152691bdd081cdd58d8d9595960b21b60648201526084016105ae565b60606115f684846000856115fe565b949350505050565b60608247101561165f5760405162461bcd60e51b815260206004820152602660248201527f416464726573733a20696e73756666696369656e742062616c616e636520666f6044820152651c8818d85b1b60d21b60648201526084016105ae565b843b6116ad5760405162461bcd60e51b815260206004820152601d60248201527f416464726573733a2063616c6c20746f206e6f6e2d636f6e747261637400000060448201526064016105ae565b600080866001600160a01b031685876040516116c991906118a1565b60006040518083038185875af1925050503d8060008114611706576040519150601f19603f3d011682016040523d82523d6000602084013e61170b565b606091505b509150915061171b828286611726565b979650505050505050565b6060831561173557508161118a565b8251156117455782518084602001fd5b8160405162461bcd60e51b81526004016105ae91906118bd565b600060208284031215611770578081fd5b813561118a816119f0565b60006020828403121561178c578081fd5b815161118a81611a05565b6000602082840312156117a8578081fd5b815161118a816119f0565b6000602082840312156117c4578081fd5b5035919050565b6000602082840312156117dc578081fd5b5051919050565b600080604083850312156117f5578081fd5b823591506020830135611807816119f0565b809150509250929050565b600080600060608486031215611826578081fd5b833592506020840135611838816119f0565b9150604084013561184881611a05565b809150509250925092565b60008060408385031215611865578182fd5b50508035926020909101359150565b600080600060608486031215611888578283fd5b8335925060208401359150604084013561184881611a05565b600082516118b3818460208701611993565b9190910192915050565b60208152600082518060208401526118dc816040850160208701611993565b601f01601f19169190910160400192915050565b6020808252818101527f4f776e61626c653a2063616c6c6572206973206e6f7420746865206f776e6572604082015260600190565b60008219821115611938576119386119da565b500190565b60008261195857634e487b7160e01b81526012600452602481fd5b500490565b6000816000190483118215151615611977576119776119da565b500290565b60008282101561198e5761198e6119da565b500390565b60005b838110156119ae578181015183820152602001611996565b838111156112c25750506000910152565b60006000198214156119d3576119d36119da565b5060010190565b634e487b7160e01b600052601160045260246000fd5b6001600160a01b038116811461117b57600080fd5b801515811461117b57600080fdfea2646970667358221220254e2330b698d27c9ca0265c0d31f32b425ab183a05d244c48463bf939931aa864736f6c63430008040033",
  "devdoc": {
    "kind": "dev",
    "methods": {
      "owner()": {
        "details": "Returns the address of the current owner."
      },
      "renounceOwnership()": {
        "details": "Leaves the contract without owner. It will not be possible to call `onlyOwner` functions anymore. Can only be called by the current owner. NOTE: Renouncing ownership will leave the contract without an owner, thereby removing any functionality that is only available to the owner."
      },
      "transferOwnership(address)": {
        "details": "Transfers ownership of the contract to a new account (`newOwner`). Can only be called by the current owner."
      }
    },
    "version": 1
  },
  "userdoc": {
    "kind": "user",
    "methods": {},
    "version": 1
  },
  "storageLayout": {
    "storage": [
      {
        "astId": 7,
        "contract": "contracts/MasterChef.sol:MasterChef",
        "label": "_owner",
        "offset": 0,
        "slot": "0",
        "type": "t_address"
      },
      {
        "astId": 2560,
        "contract": "contracts/MasterChef.sol:MasterChef",
        "label": "sushi",
        "offset": 0,
        "slot": "1",
        "type": "t_contract(SushiToken)3608"
      },
      {
        "astId": 2562,
        "contract": "contracts/MasterChef.sol:MasterChef",
        "label": "devaddr",
        "offset": 0,
        "slot": "2",
        "type": "t_address"
      },
      {
        "astId": 2564,
        "contract": "contracts/MasterChef.sol:MasterChef",
        "label": "bonusEndBlock",
        "offset": 0,
        "slot": "3",
        "type": "t_uint256"
      },
      {
        "astId": 2566,
        "contract": "contracts/MasterChef.sol:MasterChef",
        "label": "sushiPerBlock",
        "offset": 0,
        "slot": "4",
        "type": "t_uint256"
      },
      {
        "astId": 2572,
        "contract": "contracts/MasterChef.sol:MasterChef",
        "label": "migrator",
        "offset": 0,
        "slot": "5",
        "type": "t_contract(IMigratorChef)2533"
      },
      {
        "astId": 2576,
        "contract": "contracts/MasterChef.sol:MasterChef",
        "label": "poolInfo",
        "offset": 0,
        "slot": "6",
        "type": "t_array(t_struct(PoolInfo)2557_storage)dyn_storage"
      },
      {
        "astId": 2583,
        "contract": "contracts/MasterChef.sol:MasterChef",
        "label": "userInfo",
        "offset": 0,
        "slot": "7",
        "type": "t_mapping(t_uint256,t_mapping(t_address,t_struct(UserInfo)2547_storage))"
      },
      {
        "astId": 2586,
        "contract": "contracts/MasterChef.sol:MasterChef",
        "label": "totalAllocPoint",
        "offset": 0,
        "slot": "8",
        "type": "t_uint256"
      },
      {
        "astId": 2588,
        "contract": "contracts/MasterChef.sol:MasterChef",
        "label": "startBlock",
        "offset": 0,
        "slot": "9",
        "type": "t_uint256"
      }
    ],
    "types": {
      "t_address": {
        "encoding": "inplace",
        "label": "address",
        "numberOfBytes": "20"
      },
      "t_array(t_struct(PoolInfo)2557_storage)dyn_storage": {
        "base": "t_struct(PoolInfo)2557_storage",
        "encoding": "dynamic_array",
        "label": "struct MasterChef.PoolInfo[]",
        "numberOfBytes": "32"
      },
      "t_contract(IERC20)728": {
        "encoding": "inplace",
        "label": "contract IERC20",
        "numberOfBytes": "20"
      },
      "t_contract(IMigratorChef)2533": {
        "encoding": "inplace",
        "label": "contract IMigratorChef",
        "numberOfBytes": "20"
      },
      "t_contract(SushiToken)3608": {
        "encoding": "inplace",
        "label": "contract SushiToken",
        "numberOfBytes": "20"
      },
      "t_mapping(t_address,t_struct(UserInfo)2547_storage)": {
        "encoding": "mapping",
        "key": "t_address",
        "label": "mapping(address => struct MasterChef.UserInfo)",
        "numberOfBytes": "32",
        "value": "t_struct(UserInfo)2547_storage"
      },
      "t_mapping(t_uint256,t_mapping(t_address,t_struct(UserInfo)2547_storage))": {
        "encoding": "mapping",
        "key": "t_uint256",
        "label": "mapping(uint256 => mapping(address => struct MasterChef.UserInfo))",
        "numberOfBytes": "32",
        "value": "t_mapping(t_address,t_struct(UserInfo)2547_storage)"
      },
      "t_struct(PoolInfo)2557_storage": {
        "encoding": "inplace",
        "label": "struct MasterChef.PoolInfo",
        "members": [
          {
            "astId": 2550,
            "contract": "contracts/MasterChef.sol:MasterChef",
            "label": "lpToken",
            "offset": 0,
            "slot": "0",
            "type": "t_contract(IERC20)728"
          },
          {
            "astId": 2552,
            "contract": "contracts/MasterChef.sol:MasterChef",
            "label": "allocPoint",
            "offset": 0,
            "slot": "1",
            "type": "t_uint256"
          },
          {
            "astId": 2554,
            "contract": "contracts/MasterChef.sol:MasterChef",
            "label": "lastRewardBlock",
            "offset": 0,
            "slot": "2",
            "type": "t_uint256"
          },
          {
            "astId": 2556,
            "contract": "contracts/MasterChef.sol:MasterChef",
            "label": "accSushiPerShare",
            "offset": 0,
            "slot": "3",
            "type": "t_uint256"
          }
        ],
        "numberOfBytes": "128"
      },
      "t_struct(UserInfo)2547_storage": {
        "encoding": "inplace",
        "label": "struct MasterChef.UserInfo",
        "members": [
          {
            "astId": 2544,
            "contract": "contracts/MasterChef.sol:MasterChef",
            "label": "amount",
            "offset": 0,
            "slot": "0",
            "type": "t_uint256"
          },
          {
            "astId": 2546,
            "contract": "contracts/MasterChef.sol:MasterChef",
            "label": "rewardDebt",
            "offset": 0,
            "slot": "1",
            "type": "t_uint256"
          }
        ],
        "numberOfBytes": "64"
      },
      "t_uint256": {
        "encoding": "inplace",
        "label": "uint256",
        "numberOfBytes": "32"
      }
    }
  }
}