{
  "address": "0x9DC704A685163C6AC3df84375068949C1ab842a8",
  "abi": [
    {
      "inputs": [
        {
          "internalType": "address",
          "name": "_token",
          "type": "address"
        },
        {
          "internalType": "address",
          "name": "_router",
          "type": "address"
        },
        {
          "internalType": "address",
          "name": "_weth",
          "type": "address"
        }
      ],
      "stateMutability": "nonpayable",
      "type": "constructor"
    },
    {
      "inputs": [
        {
          "internalType": "uint256",
          "name": "tokenAmount",
          "type": "uint256"
        }
      ],
      "name": "AddLiquidity",
      "outputs": [],
      "stateMutability": "payable",
      "type": "function"
    },
    {
      "inputs": [
        {
          "internalType": "uint256",
          "name": "minTokenAmount",
          "type": "uint256"
        }
      ],
      "name": "buyToken",
      "outputs": [],
      "stateMutability": "payable",
      "type": "function"
    },
    {
      "inputs": [],
      "name": "myToken",
      "outputs": [
        {
          "internalType": "address",
          "name": "",
          "type": "address"
        }
      ],
      "stateMutability": "view",
      "type": "function"
    },
    {
      "inputs": [],
      "name": "router",
      "outputs": [
        {
          "internalType": "address",
          "name": "",
          "type": "address"
        }
      ],
      "stateMutability": "view",
      "type": "function"
    },
    {
      "inputs": [],
      "name": "transferToContract",
      "outputs": [
        {
          "internalType": "uint256",
          "name": "",
          "type": "uint256"
        }
      ],
      "stateMutability": "view",
      "type": "function"
    },
    {
      "inputs": [],
      "name": "weth",
      "outputs": [
        {
          "internalType": "address",
          "name": "",
          "type": "address"
        }
      ],
      "stateMutability": "view",
      "type": "function"
    }
  ],
  "transactionHash": "0xdc355a5d44822cc029b17c3986cc47daebabd736f926ba5b99adbc11b739525e",
  "args": [
    "0x75B9b00BBE2822A3d46E4b5e493D80c69050A001",
    "0xd507f9CA60a809358E1F0B88209DAE311cff74Fc",
    "0x211848E6fe90c84099Ab46cD92b00cAa6952f4d5"
  ],
  "solcInputHash": "ea706c8fa508e05103abdf5453353646",
  "bytecode": "0x608060405234801561001057600080fd5b50604051610b20380380610b2083398101604081905261002f9161008d565b600080546001600160a01b039485166001600160a01b0319918216179091556001805493851693821693909317909255600280549190931691161790556100cf565b80516001600160a01b038116811461008857600080fd5b919050565b6000806000606084860312156100a1578283fd5b6100aa84610071565b92506100b860208501610071565b91506100c660408501610071565b90509250925092565b610a42806100de6000396000f3fe6080604052600436106100555760003560e01c806312cccb341461005a5780632d296bf1146100825780633fc8cef314610097578063b8fcf937146100cf578063f53d9d58146100ef578063f887ea4014610102575b600080fd5b34801561006657600080fd5b5061006f610122565b6040519081526020015b60405180910390f35b61009561009036600461088a565b6101a9565b005b3480156100a357600080fd5b506002546100b7906001600160a01b031681565b6040516001600160a01b039091168152602001610079565b3480156100db57600080fd5b506000546100b7906001600160a01b031681565b6100956100fd36600461088a565b6102d7565b34801561010e57600080fd5b506001546100b7906001600160a01b031681565b60008054604051636eb1769f60e11b81523360048201523060248201526001600160a01b039091169063dd62ed3e9060440160206040518083038186803b15801561016c57600080fd5b505afa158015610180573d6000803e3d6000fd5b505050506040513d601f19601f820116820180604052508101906101a491906108a2565b905090565b604080516002808252606082018352600092602083019080368337505060025482519293506001600160a01b0316918391506000906101f857634e487b7160e01b600052603260045260246000fd5b6001600160a01b03928316602091820292909201015260005482519116908290600190811061023757634e487b7160e01b600052603260045260246000fd5b6001600160a01b039283166020918202929092010152600154604051637ff36ab560e01b8152911690637ff36ab590349061027c908690869033904290600401610936565b6000604051808303818588803b15801561029557600080fd5b505af11580156102a9573d6000803e3d6000fd5b50505050506040513d6000823e601f3d908101601f191682016040526102d291908101906107aa565b505050565b6000546102ef906001600160a01b03163330846103ca565b60015461031d906001600160a01b031661030a83600a61099f565b6000546001600160a01b03169190610435565b6001546000805460405163f305d71960e01b81526001600160a01b039182166004820152602481018590526044810183905260648101929092523360848301524260a48301529091169063f305d71990349060c4016060604051808303818588803b15801561038b57600080fd5b505af115801561039f573d6000803e3d6000fd5b50505050506040513d601f19601f820116820180604052508101906103c491906108ba565b50505050565b6040516001600160a01b03808516602483015283166044820152606481018290526103c49085906323b872dd60e01b906084015b60408051601f198184030181529190526020810180516001600160e01b03166001600160e01b03199093169290921790915261055e565b8015806104be5750604051636eb1769f60e11b81523060048201526001600160a01b03838116602483015284169063dd62ed3e9060440160206040518083038186803b15801561048457600080fd5b505afa158015610498573d6000803e3d6000fd5b505050506040513d601f19601f820116820180604052508101906104bc91906108a2565b155b61052e5760405162461bcd60e51b815260206004820152603660248201527f5361666545524332303a20617070726f76652066726f6d206e6f6e2d7a65726f60448201527520746f206e6f6e2d7a65726f20616c6c6f77616e636560501b60648201526084015b60405180910390fd5b6040516001600160a01b0383166024820152604481018290526102d290849063095ea7b360e01b906064016103fe565b60006105b3826040518060400160405280602081526020017f5361666545524332303a206c6f772d6c6576656c2063616c6c206661696c6564815250856001600160a01b03166106309092919063ffffffff16565b8051909150156102d257808060200190518101906105d1919061086a565b6102d25760405162461bcd60e51b815260206004820152602a60248201527f5361666545524332303a204552433230206f7065726174696f6e20646964206e6044820152691bdd081cdd58d8d9595960b21b6064820152608401610525565b606061063f8484600085610649565b90505b9392505050565b6060824710156106aa5760405162461bcd60e51b815260206004820152602660248201527f416464726573733a20696e73756666696369656e742062616c616e636520666f6044820152651c8818d85b1b60d21b6064820152608401610525565b843b6106f85760405162461bcd60e51b815260206004820152601d60248201527f416464726573733a2063616c6c20746f206e6f6e2d636f6e74726163740000006044820152606401610525565b600080866001600160a01b0316858760405161071491906108e7565b60006040518083038185875af1925050503d8060008114610751576040519150601f19603f3d011682016040523d82523d6000602084013e610756565b606091505b5091509150610766828286610771565b979650505050505050565b60608315610780575081610642565b8251156107905782518084602001fd5b8160405162461bcd60e51b81526004016105259190610903565b600060208083850312156107bc578182fd5b825167ffffffffffffffff808211156107d3578384fd5b818501915085601f8301126107e6578384fd5b8151818111156107f8576107f86109f6565b8060051b604051601f19603f8301168101818110858211171561081d5761081d6109f6565b604052828152858101935084860182860187018a101561083b578788fd5b8795505b8386101561085d57805185526001959095019493860193860161083f565b5098975050505050505050565b60006020828403121561087b578081fd5b81518015158114610642578182fd5b60006020828403121561089b578081fd5b5035919050565b6000602082840312156108b3578081fd5b5051919050565b6000806000606084860312156108ce578182fd5b8351925060208401519150604084015190509250925092565b600082516108f98184602087016109ca565b9190910192915050565b60208152600082518060208401526109228160408501602087016109ca565b601f01601f19169190910160400192915050565b600060808201868352602060808185015281875180845260a0860191508289019350845b8181101561097f5784516001600160a01b03168352938301939183019160010161095a565b50506001600160a01b039690961660408501525050506060015292915050565b60008160001904831182151516156109c557634e487b7160e01b81526011600452602481fd5b500290565b60005b838110156109e55781810151838201526020016109cd565b838111156103c45750506000910152565b634e487b7160e01b600052604160045260246000fdfea264697066735822122067024e0ab68f007ba42b47cc38ead14a30081ac5f10d8316d12bc2fd3382437e64736f6c63430008040033",
  "devdoc": {
    "kind": "dev",
    "methods": {},
    "version": 1
  },
  "userdoc": {
    "kind": "user",
    "methods": {},
    "version": 1
  },
  "storageLayout": {
    "storage": [
      {
        "astId": 1510,
        "contract": "contracts/MyTokenMarket.sol:MyTokenMarket",
        "label": "myToken",
        "offset": 0,
        "slot": "0",
        "type": "t_address"
      },
      {
        "astId": 1512,
        "contract": "contracts/MyTokenMarket.sol:MyTokenMarket",
        "label": "router",
        "offset": 0,
        "slot": "1",
        "type": "t_address"
      },
      {
        "astId": 1514,
        "contract": "contracts/MyTokenMarket.sol:MyTokenMarket",
        "label": "weth",
        "offset": 0,
        "slot": "2",
        "type": "t_address"
      }
    ],
    "types": {
      "t_address": {
        "encoding": "inplace",
        "label": "address",
        "numberOfBytes": "20"
      }
    }
  }
}